:020000040000fa
:080000000002040000000000f2
:020000040000fa
:04000800c60300002b
:020000040000fa
:04000c00d802000016
:020000040000fa
:040010001a030000cf
:020000040000fa
:04001400f8020000ee
:020000040000fa
:040018003a030000a7
:020000040000fa
:04001c00c603000017
:020000040000fa
:04002000c603000013
:020000040000fa
:04002400c60300000f
:020000040000fa
:04002800c60300000b
:020000040000fa
:04002c00c603000007
:020000040000fa
:04003000c603000003
:020000040000fa
:040034009003000035
:020000040000fa
:04003800c6030000fb
:020000040000fa
:04003c00c6030000f7
:020000040000fa
:04004000c6030000f3
:020000040000fa
:040044005a0300005b
:020000040000fa
:04004800c6030000eb
:020000040000fa
:04004c00c6030000e7
:020000040000fa
:04005000c6030000e3
:020000040000fa
:04005400c6030000df
:020000040000fa
:04005800c6030000db
:020000040000fa
:04005c00c6030000d7
:020000040000fa
:04006000c6030000d3
:020000040000fa
:04006400c6030000cf
:020000040000fa
:04006800c6030000cb
:020000040000fa
:04006c00c6030000c7
:020000040000fa
:04007000c6030000c3
:020000040000fa
:04007400c6030000bf
:020000040000fa
:04007800c6030000bb
:020000040000fa
:04007c00c6030000b7
:020000040000fa
:04008000c6030000b3
:020000040000fa
:04008400c6030000af
:020000040000fa
:04008800c6030000ab
:020000040000fa
:04008c00c6030000a7
:020000040000fa
:04009000c6030000a3
:020000040000fa
:04009400c60300009f
:020000040000fa
:04009800c60300009b
:020000040000fa
:04009c00c603000097
:020000040000fa
:0400a000c603000093
:020000040000fa
:0400a400c60300008f
:020000040000fa
:0400a800c60300008b
:020000040000fa
:0400ac00c603000087
:020000040000fa
:0400b000c603000083
:020000040000fa
:0400b400c60300007f
:020000040000fa
:0400b800c60300007b
:020000040000fa
:0400bc00c603000077
:020000040000fa
:0400c000c603000073
:020000040000fa
:0400c400c60300006f
:020000040000fa
:0400c800c60300006b
:020000040000fa
:0400cc00c603000067
:020000040000fa
:0400d000c603000063
:020000040000fa
:0400d400c60300005f
:020000040000fa
:0400d800c60300005b
:020000040000fa
:0400dc00c603000057
:020000040000fa
:0400e000c603000053
:020000040000fa
:0400e400c60300004f
:020000040000fa
:0400e800c60300004b
:020000040000fa
:0400ec00c603000047
:020000040000fa
:0400f000c603000043
:020000040000fa
:0400f400c60300003f
:020000040000fa
:0400f800c60300003b
:020000040000fa
:0400fc00c603000037
:020000040000fa
:04010000c603000032
:020000040000fa
:04010400c60300002e
:020000040000fa
:04010800c60300002a
:020000040000fa
:04010c00c603000026
:020000040000fa
:04011000c603000022
:020000040000fa
:04011400c60300001e
:020000040000fa
:04011800c60300001a
:020000040000fa
:04011c00c603000016
:020000040000fa
:04012000c603000012
:020000040000fa
:04012400c60300000e
:020000040000fa
:04012800c60300000a
:020000040000fa
:04012c00c603000006
:020000040000fa
:04013000c603000002
:020000040000fa
:04013400c6030000fe
:020000040000fa
:04013800c6030000fa
:020000040000fa
:04013c00c6030000f6
:020000040000fa
:04014000c6030000f2
:020000040000fa
:04014400c6030000ee
:020000040000fa
:04014800c6030000ea
:020000040000fa
:04020800c603000029
:020000040000fa
:04020c00d802000014
:020000040000fa
:040210001a030000cd
:020000040000fa
:04021400f8020000ec
:020000040000fa
:040218003a030000a5
:020000040000fa
:04021c00c603000015
:020000040000fa
:04022000c603000011
:020000040000fa
:04022400c60300000d
:020000040000fa
:04022800c603000009
:020000040000fa
:04022c00c603000005
:020000040000fa
:04023000c603000001
:020000040000fa
:040234009003000033
:020000040000fa
:04023800c6030000f9
:020000040000fa
:04023c00c6030000f5
:020000040000fa
:04024000c6030000f1
:020000040000fa
:040244005a03000059
:020000040000fa
:04024800c6030000e9
:020000040000fa
:04024c00c6030000e5
:020000040000fa
:04025000c6030000e1
:020000040000fa
:04025400c6030000dd
:020000040000fa
:04025800c6030000d9
:020000040000fa
:04025c00c6030000d5
:020000040000fa
:04026000c6030000d1
:020000040000fa
:04026400c6030000cd
:020000040000fa
:04026800c6030000c9
:020000040000fa
:04026c00c6030000c5
:020000040000fa
:04027000c6030000c1
:020000040000fa
:04027400c6030000bd
:020000040000fa
:04027800c6030000b9
:020000040000fa
:04027c00c6030000b5
:020000040000fa
:04028000c6030000b1
:020000040000fa
:04028400c6030000ad
:020000040000fa
:04028800c6030000a9
:020000040000fa
:04028c00c6030000a5
:020000040000fa
:04029000c6030000a1
:020000040000fa
:04029400c60300009d
:020000040000fa
:04029800c603000099
:020000040000fa
:04029c00c603000095
:020000040000fa
:0402a000c603000091
:020000040000fa
:0402a400c60300008d
:020000040000fa
:0402a800c603000089
:020000040000fa
:0402ac00c603000085
:020000040000fa
:0402b000c603000081
:020000040000fa
:0402b400c60300007d
:020000040000fa
:0402b800c603000079
:020000040000fa
:0402bc00c603000075
:020000040000fa
:0402c000c603000071
:020000040000fa
:0402c400c60300006d
:020000040000fa
:0402c800c603000069
:020000040000fa
:0402cc00c603000065
:020000040000fa
:0402d000c603000061
:020000040000fa
:0402d400c60300005d
:020000040000fa
:0402d800c603000059
:020000040000fa
:0402dc00c603000055
:020000040000fa
:0402e000c603000051
:020000040000fa
:0402e400c60300004d
:020000040000fa
:0402e800c603000049
:020000040000fa
:0402ec00c603000045
:020000040000fa
:0402f000c603000041
:020000040000fa
:0402f400c60300003d
:020000040000fa
:0402f800c603000039
:020000040000fa
:0402fc00c603000035
:020000040000fa
:04030000c603000030
:020000040000fa
:04030400c60300002c
:020000040000fa
:04030800c603000028
:020000040000fa
:04030c00c603000024
:020000040000fa
:04031000c603000020
:020000040000fa
:04031400c60300001c
:020000040000fa
:04031800c603000018
:020000040000fa
:04031c00c603000014
:020000040000fa
:04032000c603000010
:020000040000fa
:04032400c60300000c
:020000040000fa
:04032800c603000008
:020000040000fa
:04032c00c603000004
:020000040000fa
:04033000c603000000
:020000040000fa
:04033400c6030000fc
:020000040000fa
:04033800c6030000f8
:020000040000fa
:04033c00c6030000f4
:020000040000fa
:04034000c6030000f0
:020000040000fa
:04034400c6030000ec
:020000040000fa
:04034800c6030000e8
:020000040000fa
:10040000ef2b21000e7f22000e018800000000006b
:10041000000020000000e000020032000001200087
:100420002002880014000700e50007000000e0003b
:1004300003003a00007d2100010020000200370087
:100440000000200001002000810f70000100320038
:1004500014000700000020000000e000020032004d
:100460000000020000000000ba28020000000000a6
:100470000040da000000fe004440a90000502000c7
:100480000000e0000300320000002000a00188000e
:100490004440a800000006008a1f78008b1f7800e7
:1004a0000000060091018800800478000000eb0045
:1004b0001a003700e284440032a0b4009905ba0063
:1004c000e284440032a0b4009906ba00e2844400f9
:1004d00032a0b4000006eb00476fde00fd07b2005b
:1004e000636ce10003003a00ebff07000000eb0043
:1004f0000a003700606ce10004003a00005deb0088
:100500008b05e900fdff3e00040037006168e10053
:10051000010032000086eb000b00070019c7ba008b
:100520001905ba000e04e00003003a000a00e000da
:10053000e0ff3a0000000600fe07b2009e018800be
:100540008a047800f5ff3700395dba008b05e900b1
:100550000c003200295dba008b05e900080032006a
:100560000c00e00003003a00e284440032a0b40032
:10057000f5ff370019ddba008b05e900faff3a00f4
:100580008904e800e184440032a0b40000000600c1
:10059000000000000000000000000000000000005b
:1005a000000000000000000000000000000000004b
:1005b0003600f800809fbe00829fbe00849fbe0070
:1005c000869fbe000000fa008020a9000000eb001a
:1005d000c71207000080fa004f03be004f02be00a2
:1005e0004f01be004f00be003600f900004006007b
:1005f0003600f800809fbe00829fbe00849fbe0030
:10060000869fbe000000fa00be1207008040a900cd
:1006100010002000b61207000080fa004f03be0051
:100620004f02be004f01be004f00be003600f90071
:10063000004006003600f800809fbe00829fbe008a
:10064000849fbe00869fbe000000fa008060a90063
:1006500020002000a61207000080fa004f03be0011
:100660004f02be004f01be004f00be003600f90031
:10067000004006003600f800809fbe00829fbe004a
:10068000849fbe00869fbe000000fa008080a90003
:1006900030002000961207000080fa004f03be00d1
:1006a0004f02be004f01be004f00be003600f900f1
:1006b000004006003600f800809fbe00829fbe000a
:1006c000849fbe00869fbe000000fa00504080005c
:1006d0000000e000020032005040800000000100f5
:1006e000b02b2100104078008040e800b02b2100a2
:1006f00001487800a02b210011c0b3000148780008
:1007000084e0a9000080fa004f03be004f02be0043
:100710004f01be004f00be003600f9000040060049
:100720003600f800809fbe00829fbe00849fbe00fe
:10073000869fbe000000fa00704080000000e000cc
:10074000020032007040800000000100d02b210028
:10075000104078008040e800d02b2100014878004c
:10076000c02b210011c0b300014878008460a900ab
:100770000080fa004f03be004f02be004f01be00d2
:100780004f00be003600f900004006000040da00cd
:100790000000fe00000178001001e20002003500b8
:1007a0001061a80011e1a800300880004108800015
:1007b0000200e000010032000089be0000000600d7
:1007c000000005006011b80067023700889fbe0076
:1007d0008a9fbe008c9fbe001b0020000202be004c
:1007e0000586680006002800060666004709de0048
:1007f000f20fb200820032000243e80080003200b3
:10080000c729de00f30fb2007d0032000343e80089
:100810007b003200f107b2000170a000f507b200c2
:100820000570a000c708dd004903de008680700067
:100830004700dd00c72add004923de008682720002
:100840004722dd0003055100040350008583580052
:100850000300310000004000818048000a05e900e3
:100860008c1f78008a9fbe000400500085805800cd
:100870000402420085824a00000040008180480056
:100880000005eb000004be006033b8000406be00a3
:100890000d48e10056003100110009004dccd80090
:1008a0000c01b8000d02b8008481410060824a004a
:1008b0008283530003045c0084845c0060055d0057
:1008c0000a00e00025003a00800578000d40e100b4
:1008d0004900310088007800070078001100090005
:1008e0004d88d8000c01b8000d02b8008481410089
:1008f00060824a006003110083835b0004045c0093
:10090000e0845c000900e00021003a004f01be00d5
:100910000300e0002b003200e301600007067300d3
:100920008c81710001003200640070004200de0022
:100930004e5edd000c007000c258de0001e0a00039
:1009400083010700cf017800818071004f06be004f
:100950004f05be004f04be00000006008c8343001c
:100960000d044c00e0844c0060054d000000e900df
:100970000a00e000d4ff32008c8343000d044c00d9
:10098000e0844c0060054d000000e900ceff370018
:100990000c0343008d834b0060044c00e0844c004a
:1009a0000000e9000900e000d8ff32000c0343001a
:1009b0008d834b0060044c00e0844c000000e90093
:1009c000d2ff37004200de004e5edd000c007000fa
:1009d000c258de0001e0a000cf0178000300e00073
:1009e000daff320060001000e0801800d7ff370007
:1009f000f0ff2f00aaff3700f0ff2f00b9ff3700ec
:100a00000404be002f010700870678000004fd00e3
:100a10008104fd002b010700078366000678a30010
:100a2000030032000960a7000800be002c00370058
:100a30000d78a300020032000800be002800370035
:100a40000778a30026003a0001f0a10009f0a100f8
:100a50000668a30003003200f1ff2700f0ff2f001b
:100a6000baff37000d68a300030032000800be0083
:100a70008c807000b5ff37000768a30007003a00bc
:100a80000648a30003003200f1ff2700f0ff2f000b
:100a9000aeff37000d48a300030032006000b8002d
:100aa0008c807000a9ff37000748a30004003200c3
:100ab00001f82700000020008c807000a3ff3700a1
:100ac000760107000004fd008104fd0002057800a6
:100ad000720107000802be008a01780059ff370042
:100ae0000160a000120220009240880097ff3700aa
:100af0000100e000120032000500e00010003200aa
:100b0000889fbe008a9fbe008c9fbe000006eb003f
:100b100001f8a3000300320060001000e08018001c
:100b20000cf0a00005f8a3000300320060021200e0
:100b3000e0821a000cf0a2008005eb0041ff3700b4
:100b40006000b80002000500038368000700280069
:100b500007036300470ade000480a100c71ade0015
:100b60000580a100f70f20000720e10042003200bd
:100b70000728e10040003200889fbe008a9fbe0027
:100b80008c1f7800f107b200f307b2000400e00008
:100b9000640032000170a0000500e000680032002f
:100ba0000370a00085054200eb07b1000204b80005
:100bb0000302b8008484440060854a00020ab80039
:100bc000848444000a854a00030ab80004054500ed
:100bd000040033000804d0008984d2000a85d200c2
:100be0008b05e9006158e1003d003500021020004e
:100bf000090161000308200089816100f7072000d6
:100c00008783640008867300c84cde00c853dd008b
:100c1000878474004855de000300e00006003200bf
:100c200082037600040032008904e80060054d006c
:100c30000a88a3000c003a00f70f20000758e100d3
:100c400044003d000a70a100c75ddd000a85750003
:100c50008a007300090078004f0678004f05be0037
:100c60004f04be00000006000a05d1008984d300ad
:100c70008b05e800f0ff3700881f78000604780035
:100c800090000700070278000001fd008101fd00cf
:100c90008c00070087027800850372000778a300a4
:100ca000050032000001fd008101fd009f000700ea
:100cb0004f04780000000600850372000748a30077
:100cc00003003200f0ff2f00f1ff2700f8ff37008c
:100cd0000000200001f8270088807000f4ff370032
:100ce000880178004848dd00808171004848de00b6
:100cf000c850dd0001007000c850de000604780016
:100d00000b0178001600070088807000d2ff3700c2
:100d10000500e00005003200170020003a0007003f
:100d20009dff370081037000f9ff3a0086007800cc
:100d30004f0678004f05be004f04be0000000500be
:100d400083037100f9ff3200270020002e00070006
:100d500094ff370001f8270086807000f4ff370009
:100d60000100e00026003200610111007810e1006e
:100d700023003c006022b8007010e1000400350040
:100d800080027800010078008000eb0070015100c3
:100d90000200e0000900340070031100062add00a3
:100da000822ade008603dd00878272000200de00f8
:100db000860bdd00070070008208de008481710070
:100dc000f4ff27000482620084817100040028007f
:100dd000848262006102600005f0a6000000060047
:100de00004827100070032000000e800e080480043
:100df000000006000002be006000b800efff3700f0
:100e00006000b80000000600889fbe000004eb00f0
:100e10006138e10016003a000100e00008003a00e5
:100e2000c800de004800dd00880020000100e0006e
:100e300003003a00c800de004800dd0068044400fa
:100e40008184cf00e9845400060034008908dd0065
:100e5000f08314008703de00878070000900dd0046
:100e600009044400610214004f04be0000000600a3
:100e70000300e00008003a00c811de004811dd0060
:100e8000880020000300e00003003a00c811de00e3
:100e90004811dd00680444008384cf00e9845400d5
:100ea000060034008919dd00f08314008713de008a
:100eb000878171000911dd0009044400e10214007a
:100ec000e9ff37002700200001f0a70017002000ed
:100ed000470bde00f60fb200040032000643e800c4
:100ee0000a0032004702b300000006000103780048
:100ef000f607b2000603700002003a000703b300d1
:100f0000000006008702b30000000600010378001d
:100f1000f607b20006037000020032000770a0005e
:100f2000000006000760a000000006000478a3008f
:100f3000040032000578a300030032000168a3001a
:100f400001003a000200be000160a000000006009f
:100f500081017000270032008002eb0001f8a3003d
:100f60000300320060001000e0801800150020002f
:100f7000f40720000202420020003400f7032000a2
:100f800087036000060420000003630002082000bd
:100f9000000161004700de00c909dd00008071002a
:100fa000c708de000600e000080032008703710079
:100fb000060032001000b0000180b0000188a300dc
:100fc00002003200c108de000402e800f107b200ae
:100fd000f30f20000320e10003003d004722dd0065
:100fe000810072002900370001f827000000eb00a3
:100ff000260037006000b8000000060068021200fa
:101000007f20e100020034006000b8001f003700bc
:101010006011b8007020e100040035008001780004
:10102000010078008000eb00700252000400e00034
:1010300009003400f00312000719dd008419de00f6
:101040000703dd00868171000400de00070bdd0070
:10105000060070008408de00f7ff2700838363002a
:1010600087037100060028000303630007003200b5
:101070000700e00003003a00610160000281730094
:10108000020032001000b0000180b0000500a60090
:101090000000060001f0a000000006004f0ade007c
:1010a0004709de00f107b200f20fb2000b00320078
:1010b000f207b1000170a000c708dd00c901de0021
:1010c000838070004700dd000400a60000000600d9
:1010d00060001000e080180000000600810f700022
:1010e00001003a00000006008182cf000500e00008
:1010f00010003e008082cf00ee8242007028e100a6
:101100000400390007003e00800078000000eb007a
:101110000e003700708312008600de000500dd003f
:101120000a003700708352008600dd000000eb00eb
:1011300006003700e28252008508dd00708312004d
:101140000603de00868070000500dd007507b00034
:101150000501ea000400a60000000600600010007f
:10116000e080180000000600889fbe008a9fbe0035
:1011700000827000040271000482710026003200b7
:101180000004be000200be006011b8006b09200020
:10119000950220000182cf000a0039000541b1000c
:1011a0000082cf00070039000541b1000982cf005d
:1011b000040039000541b1000882cf000100390068
:1011c0000541b10005425200120032000a003b0006
:1011d00082817100610164008100d1000080d30030
:1011e0008984d3000884d3008b05e8000442e8001a
:1011f000f7ff3a00070037000804440089844c00d8
:1012000000004800818048008b05e9000442e900a5
:10121000f9ff3a00030007004f05be004f04be006f
:101220000000060081002000618055000b003d0099
:101230000b00200061fe2f000100e1001d003400c2
:1012400082817100610164008904d1000884d300a7
:101250000000e800faff3a0071002000610064001d
:1012600003007000020060000900320061044400c5
:10127000e0844c000988a500050032008b05e800d9
:101280006808e10002003a008904d1000884d30014
:10129000f20f20000258e10005003d00c75ddd00af
:1012a000f907b20089807500080078000000060088
:1012b0000bf827008b007800000005008001780003
:1012c00002003700b15978000201e9000200e00095
:1012d000fcff3a0000000600889fbe008a9fbe0007
:1012e000800478000200e0005b00320001407800da
:1012f000814c780082814400f1f99f00e20f510097
:101300005500360091449800a1449800e1f99f00ef
:10131000d1f99f00e60f51004f003600b14498000c
:10132000c1f99f00e80f51004b0036000905ea00a3
:10133000630565000a8444000a055100c1ff2f00bf
:10134000010565000080fb008000eb00121020000a
:101350001310200055000700008cbe000a01440055
:1013600060b99f0071b99f00e80f55003a00360040
:10137000200498003104980040049800510498001b
:1013800020b99f0031b99f0040b99f0051b99f001b
:10139000f80f550030003600600498007104980082
:1013a000000c9800110c9800200c9800310c98004b
:1013b000400c9800510c980020b19f0031b19f0063
:1013c00040b19f0051b19f0060b19f0071b19f007b
:1013d00000b99f0011b99f006401640078014100c9
:1013e00002044400020555006011b8000203be006b
:1013f0000002be000403be006022b80000007200bc
:101400008180720002017300838173001000370035
:10141000009cbe000294be00400498005104980055
:101420006204980073049800000c9800110c980056
:10143000220c9800330c9800400c9800510c980036
:10144000620c9800730c98000a02b1000802b00008
:10145000ff0f5500eeff3e00090078004f05be006b
:101460004f04be00000006000000e9008000eb0011
:10147000b0958800c195880000000600d2f22700d0
:1014800053c92400b0958000c19580000700070073
:1014900061014000e0814800b2958800c395880052
:1014a0004118de000100200000000600020ab90019
:1014b000001bb9000200b800810042008100430017
:0414c0000000060022
:020000040000fa
:1014c40080000000c0030000c0030000c00300004f
:1014d400c0030000c0030000800000008000000082
:1014e400c0030000c0030000800000008000000072
:1014f40080000000c0030000c00300008000000062
:10150400c0030000c0030000800000008000000051
:10151400c0030000c0030000c003000080000000fe
:10152400c0030000c003000080000000c0030000ee
:10153400c0030000c0030000c003000080000000de
:10154400c0030000c0030000c0030000c00300008b
:1015540080000000c0030000c00300008000000001
:10156400c0030000c0030000c003000080000000ae
:1015740080000000c0030000c003000080000000e1
:1015840080000000c0030000c0030000c00300008e
:10159400c0030000c00300008000000080000000c1
:1015a4008000000080000000800000008000000037
:1015b4008000000080000000800000008000000027
:1015c4008000000080000000c0030000c003000091
:1015d4008000000080000000800000008000000007
:1015e40080000000c0030000c0030000c00300002e
:1015f40080000000800000008000000080000000e7
:101604008000000080000000c0030000c003000050
:1016140080000000800000008000000080000000c6
:101624008000000080000000c0030000c003000030
:1016340080000000800000008000000080000000a6
:101644008000000080000000c0030000c003000010
:101654008000000080000000800000008000000086
:101664008000000080000000c0030000c0030000f0
:101674008000000080000000800000008000000066
:10168400c0030000c0030000c0030000c00300004a
:10169400c0030000c00300008000000080000000c0
:1016a4008000000080000000800000008000000036
:1016b4008000000080000000800000008000000026
:1016c40080000000c0030000c0030000c00300004d
:1016d400c0030000800000008000000080000000c3
:1016e400c0030000c0030000800000008000000070
:1016f400c0030000c0030000800000008000000060
:1017040080000000800000008000000080000000d5
:10171400c0030000c003000080000000800000003f
:101724008000000080000000c0030000c00300002f
:10173400c003000080000000800000008000000062
:1017440080000000c0030000c0030000800000000f
:101754008000000080000000800000008000000085
:10176400c0030000c00300008000000080000000ef
:10177400c0030000c00300008000000080000000df
:10178400c0030000c0030000c0030000c003000049
:10179400c0030000c00300008000000080000000bf
:1017a4008000000080000000800000008000000035
:1017b4008000000080000000800000008000000025
:1017c40080000000c0030000c0030000c00300004c
:1017d400c0030000800000008000000080000000c2
:1017e400c0030000c003000080000000800000006f
:1017f400c0030000c003000080000000800000005f
:1018040080000000800000008000000080000000d4
:10181400c0030000c003000080000000800000003e
:101824008000000080000000c0030000c00300002e
:10183400c003000080000000800000008000000061
:101844008000000080000000800000008000000094
:10185400c0030000c00300008000000080000000fe
:10186400c0030000c00300008000000080000000ee
:10187400c0030000c00300008000000080000000de
:1018840080000000c0030000c0030000c00300008b
:10189400c003000080000000800000008000000001
:1018a4008000000080000000800000008000000034
:1018b4008000000080000000800000008000000024
:1018c400800000008000000080000000c0030000d1
:1018d400c0030000c003000080000000800000007e
:1018e4008000000080000000c0030000c00300006e
:1018f400c0030000c003000080000000800000005e
:1019040080000000c0030000c0030000800000004d
:10191400c0030000c003000080000000800000003d
:10192400c0030000c003000080000000800000002d
:10193400c0030000c003000080000000800000001d
:10194400c0030000c0030000c0030000c003000087
:10195400c0030000c0030000c003000080000000ba
:101964008000000080000000800000008000000073
:10197400c0030000c00300008000000080000000dd
:10198400800000008000000080000000c003000010
:10199400c0030000c0030000c0030000800000007a
:1019a4008000000080000000800000008000000033
:1019b4008000000080000000800000008000000023
:1019c400c0030000c0030000c0030000c003000007
:1019d400c0030000c003000080000000800000007d
:1019e400c0030000c003000080000000800000006d
:1019f40080000000800000008000000080000000e3
:101a0400c0030000c0030000c0030000c0030000c6
:101a1400c00300008000000080000000800000007f
:101a240080000000800000008000000080000000b2
:101a3400c0030000c003000080000000800000001c
:101a44008000000080000000800000008000000092
:101a5400c0030000c00300008000000080000000fc
:101a6400c0030000c00300008000000080000000ec
:101a7400c0030000c00300008000000080000000dc
:101a840080000000c0030000c0030000c003000089
:101a9400c0030000800000008000000080000000ff
:101aa4008000000080000000800000008000000032
:101ab4008000000080000000800000008000000022
:101ac4008000000080000000c0030000c00300008c
:101ad400c0030000800000008000000080000000bf
:101ae40080000000c0030000c0030000800000006c
:101af40080000000800000008000000080000000e2
:101b0400c0030000c003000080000000800000004b
:101b140080000000800000008000000080000000c1
:101b2400c0030000c0030000c0030000c0030000a5
:101b3400c00300008000000080000000800000005e
:101b4400c0030000c003000080000000800000000b
:101b5400c0030000c00300008000000080000000fb
:101b6400c0030000c00300008000000080000000eb
:101b7400c0030000c00300008000000080000000db
:101b840080000000c0030000c0030000c003000088
:101b9400c0030000800000008000000080000000fe
:101ba4008000000080000000800000008000000031
:101bb4008000000080000000800000008000000021
:101bc400c0030000c0030000c0030000c003000005
:101bd400c0030000c003000080000000800000007b
:101be400c0030000c003000080000000800000006b
:101bf400c0030000c003000080000000800000005b
:101c040080000000800000008000000080000000d0
:101c1400c0030000c003000080000000800000003a
:101c2400800000008000000080000000c00300006d
:101c3400c00300008000000080000000800000005d
:101c44008000000080000000c0030000c00300000a
:101c54008000000080000000800000008000000080
:101c64008000000080000000c0030000c0030000ea
:101c74008000000080000000800000008000000060
:101c84008000000080000000c0030000c0030000ca
:101c94008000000080000000800000008000000040
:101ca4008000000080000000800000008000000030
:101cb4008000000080000000800000008000000020
:101cc40080000000c0030000c0030000c003000047
:101cd400c0030000800000008000000080000000bd
:101ce400c0030000c003000080000000800000006a
:101cf400c0030000c003000080000000800000005a
:101d0400c0030000c0030000800000008000000049
:101d1400c0030000c0030000800000008000000039
:101d240080000000c0030000c0030000c0030000e6
:101d3400c00300008000000080000000800000005c
:101d4400c0030000c0030000800000008000000009
:101d5400c0030000c00300008000000080000000f9
:101d6400c0030000c00300008000000080000000e9
:101d7400c0030000c00300008000000080000000d9
:101d840080000000c0030000c0030000c003000086
:101d9400c0030000800000008000000080000000fc
:101da400800000008000000080000000800000002f
:101db400800000008000000080000000800000001f
:101dc40080000000c0030000c0030000c003000046
:101dd400c0030000800000008000000080000000bc
:101de400c0030000c0030000800000008000000069
:101df400c0030000c0030000800000008000000059
:101e0400c0030000c0030000800000008000000048
:101e1400c0030000c0030000800000008000000038
:101e240080000000c0030000c0030000c0030000e5
:101e3400c0030000c0030000800000008000000018
:101e4400800000008000000080000000800000008e
:101e5400c0030000c00300008000000080000000f8
:101e6400800000008000000080000000c00300002b
:101e7400c00300008000000080000000800000001b
:101e840080000000c0030000c0030000c003000085
:101e9400800000008000000080000000800000003e
:101ea400800000008000000080000000800000002e
:101eb400800000008000000080000000800000001e
:020000040000fa
:101ec4000000fa00d09380003002b1000000e0006e
:101ed40001003d00670040004380de00e09388007d
:101ee40031948000e09380000000400000804000b6
:101ef40010007800e40f500031003200e40f50006d
:101f04000c003c00e10f500016003200e10f5000bd
:101f140003003c000000e0000f0032004b003700db
:101f2400e20f50001c003200e30f5000200032008a
:101f340046003700e60f500036003200e60f50002e
:101f44002d003500e70f50003b003200e80f500031
:101f54000e0032003d00370000082000b9070700da
:101f64003a00370000000000c2882000e09380009f
:101f740080007800000a20000088b9000000780082
:101f8400000041004b09070030003700c0f6200074
:101f9400480907002d003700000000000000000081
:101fa40000000000c0d820004209070027003700c5
:101fb40000000000c0e220003e09070023003700b3
:101fc400000000000000000000000000000000000d
:101fd40000000000000000000000000000000000fd
:101fe400000000000000000000000000c0ec200021
:101ff4003009070015003700000000000000000051
:102004000000000000000000c0142100290907009e
:102014000e00370000000000000000000000000077
:10202400000000000000000000000000c0002100cb
:102034002009070005003700000000000000000030
:10204400c00a21001b09070000000000d093800093
:10205400e20f500001003a00cce2a800d0938000c7
:102064000000e800d09388000080fa000000060019
:102074000000fa00cce2a900111680000040200004
:10208400008060000000e00003003a00e028210026
:1020940011c0b30001487800f0938000e30f5000b2
:1020a40018003a00e0282100104078000004e00005
:1020b400140032002094800030948800000820002e
:1020c4001094880042292100212921006028210040
:1020d40003802000c2010700602821000180200045
:1020e40082020700f0282100104078000004a200ba
:1020f4000004e0007500320060002000f0938800c6
:1021040072003700f0938000e20f500004003a00a0
:10211400e0282100104078000004e0006b003a0041
:10212400f0938000e10f500022003a00e0282100e3
:10213400104078000004e0001e003200409480004b
:102144004004b000420320008000eb0061fc070063
:1021540021948000c01e2100808f500002003a00ac
:102164004081200001003700c01e21002094880017
:102174004194800040812000808f500002003a008a
:10218400c01e2100010037004081200040948800d7
:1021940001948000008020001000780000004000be
:1021a400008040001094880020292100530007007b
:1021b40046003700f0938000e40f50001c003a0002
:1021c40000292100104078000004e0000c003200d7
:1021d4005094800080004000402621000080400090
:1021e4001000780080007800c088200054c3b30039
:1021f40043c0b3000041eb00570107003300370030
:10220400609480008000400040262100008040004f
:102214001000780080007800c088200034c1b3002a
:1022240043c0b3000041eb004b0107002700370017
:10223400f0938000e50f50001f003a0000292100b0
:10224400104078000004e0000c003200509480003c
:1022540080004000402621000080400010007800eb
:1022640080007800c088200054c3b30073c0b3005a
:1022740042c0b300380107000b00370060948000af
:1022840080004000402621000080400010007800bb
:1022940080007800c088200034c1b30073c0b3004c
:1022a40042c0b3002c010700f02821008040eb005d
:1022b4000148780005003700409480007000400019
:1022c400420320008000eb0002fc07000000eb004a
:1022d400d0938800f0938000e40f500003003c008a
:1022e400f09380000000e800010037000000eb00dc
:1022f400f09388000080fa00000006000400fa0051
:1023040010079800f20a0700000f7800700c2000f4
:102314009e007800808f50000a003e001e0090004e
:1023240010007800e80f5000060032001e009000f4
:10233400100078008000e9001e0090000108780079
:102344000e003700003220009e007800808f50007d
:102354000a0036001e0090009000780070032000f0
:10236400808f5000050032001e009000100078009d
:102374008000e8001e009000010878000080fa0048
:10238400000006000400fa00000f7800110798000e
:102394001e00900010009000ea0f50000a00340064
:1023a4001e0090009000900090032000808f500049
:1023b40005003c001e009000100090008080e900a1
:1023c4001e007800010878000080fa000000060072
:1023d4000600fa00881f7800000f780011079800a3
:1023e400220798001e00780010007800e50f5000c6
:1023f40053003a001e007800900090001e009000e8
:1024040040009000808f50000d0035001e007800c1
:10241400900090001e009000400090006500400075
:10242400808f500006003d001e0090004000900088
:10243400800078001e00780078020700c30037008f
:102444001e00900011c0b300514098001e0090007f
:102454008040eb00414098002e0090004100200095
:10246400210098001e009000100078008000e80011
:102474001e009000010878001e00900010007800f3
:10248400ea0f500006003a001e0090008000eb00a6
:10249400010878001e0090008000eb0011009800f5
:1024a4001e00780081022000010878001e007800d8
:1024b400e1012000110098001e0078008000eb006c
:1024c400210098001e009000c101200041009800e6
:1024d4001e009000c1012000510098002e009000c1
:1024e400d00090002e009000610098002e00900013
:1024f40001082000410098001e0090005000900048
:10250400000178001e0090004000900080007800d8
:102514002e009000600090009e017800b00007003b
:102524002e0090006c0040009e0078006f010700b0
:102534001e00900011c0b300614098008300370072
:102544001e00780090007800a0042000808f5000c6
:1025540073003a001e009000d00090007003200029
:10256400808f50000f003a001e009000500490002d
:10257400c1fb070011002800010060000000e0001a
:1025840004003d000000e900e1ff2f00008070001e
:102594000000e800800054001e00900051009800e4
:1025a4000c0037001e00900050049000b2fb07009e
:1025b4003100200001017800110009000200d80058
:1025c4008000fd000000e900800044001e0090002f
:1025d400510098001e007800900090001e009000aa
:1025e40050009000808f50000d0035001e007800d0
:1025f400900090001e009000500090006500400084
:10260400808f500006003d001e0090005000900096
:10261400800078001e007800300207004b0037006d
:102624001e00900011c0b300514098001e0090009d
:102634008040eb00414098002e00900041002000b3
:10264400210098001e009000100090008000e80017
:102654001e009000110098001e00900010009000d1
:10266400ea0f500006003a001e0090008000eb00c4
:10267400010878001e0090008000eb001100980013
:102684001e00780081022000010878001e007800f6
:10269400e1012000110098001e00780011002000c4
:1026a400210098001e009000c10120004100980004
:1026b4001e009000c1012000510098002e009000df
:1026c400d00090002e009000610098002e00900031
:1026d40001082000410098001e0090005000900066
:1026e400000178001e0090004000900080007800f7
:1026f4002e009000600090009e01780038000700d2
:102704002e0090006c0040009e007800f700070047
:102714001e0090008040eb00614098000b003700e1
:102724001e00780010009000e80f500005003200f1
:102734001e00780090009000b0032000808f5000ad
:1027440002003a001e007800860107004f0478005a
:102754000080fa00000006000800fa00000f78006c
:10276400110798004247980053479800644798001f
:10277400150037004e4090000080fb004400dd004f
:102784009e009000808140004e4090008080fb00bd
:10279400000520000088b900800078006e40900099
:1027a4000080fb0000804000000040001e0040004c
:1027b4000201200083007800bffa07004e40900019
:1027c4000040e80040479800ce4090005e409000f2
:1027d40080cf5000e7ff36000080fa0000000600ba
:1027e4000e00fa003007980041079800520798003d
:1027f400630798004e009000104078008080fb0032
:102804005e009000104078000080fb0000805000c3
:1028140000f0a7000000ea004047980051c0b30050
:102824004e40900000c05000504798000000eb005c
:10283400000f78000000eb00100798004e40900055
:10284400e44f500068003e004e0090009040780035
:102854005e0090001040780080cf50002f003100bf
:10286400160037004e009000104078000080fb00f6
:102874001e00400000004000be00900000804000a8
:1028840021002000010878005e00900010407800cc
:102894008080fb005e4090000080fb0000804000d0
:1028a4001e00400000004000be0090000080400078
:1028b40031002000010878001e0fe8004e4090000f
:1028c4000080fb009e0f5000e6ff3c000d00370027
:1028d4005e009000104078008080fb001e00900095
:1028e4000080400000004000be00900000804000d6
:1028f40041002000010878001e0090000000e8005c
:10290400100798005e4090008080fb001e0090003d
:10291400808f5000eeff3c005a0037000000eb00af
:10292400000f7800160037005e0090001040780019
:102934000080fb001e00400000004000be0090002c
:102944000080400031002000010878004e00900013
:10295400104078008080fb005e4090000080fb0007
:10296400008040001e00400000004000be009000b7
:102974000080400021002000010878001e0fe800bc
:102984004e4090000080fb009e0f5000e6ff3c008c
:102994000000eb00100798000d0037004e00900077
:1029a400104078008080fb001e00900000804000f2
:1029b40000004000be009000008040004100200064
:1029c400010878001e0090000000e800100798003d
:1029d4005e4090008080fb001e009000808f5000bd
:1029e400eeff3c00270037004e00900010407800b6
:1029f4000080fb00000f7800070037001e007800fd
:102a040000004000be009000008040002100200033
:102a1400010878001e0fe8004e0090001040780076
:102a24000080fb00650040009e0f5000f3ff3c0057
:102a34005e009000104078000080fb0010079800b2
:102a4400090037001e00900000004000be00900006
:102a54000080400031002000010878001e00900032
:102a64000000e800100798005e0090001040780015
:102a74000080fb00e50040001e009000808f5000a5
:102a8400f0ff3c006e009000100090000000400039
:102a9400be00900000804000100078000000e000bc
:102aa40010003a006e0090001000900000004000fa
:102ab400be009000008040008100200001087800e2
:102ac4006e0090001000780080004000c0f62000e6
:102ad40000804000013c200001087800c0f620007e
:102ae400009488000080fa00000006000400fa0048
:102af400000f7800110798001e009000100090004d
:102b0400000040001e00400010007800e30f500059
:102b140014003200e40f500022003200e20f500093
:102b240030003a001e0090001000900000004000a9
:102b34001e00400061002000010878001e00900083
:102b44001000780080004000c00021000080400098
:102b5400013c200001087800c00021000094880096
:102b6400200037001e00900010009000000040007c
:102b74001e00400071002000010878001e00900033
:102b84001000780080004000c00a2100008040004e
:102b9400013c200001087800c00a2100009488004c
:102ba400100037001e00900010009000000040004c
:102bb4001e00400051002000010878001e00900013
:102bc4001000780080004000c01421000080400004
:102bd400013c200001087800c01421000094880002
:102be400000000000080fa00000006000200fa0065
:102bf400000f78001e00780020009000e30f5000c2
:102c040024003200e30f500007003c00e10f5000a5
:102c140014003200e10f500018003c000000e000f6
:102c24000a0032004d003700e50f50002a00320040
:102c3400e50f50001d003500e60f50003100320052
:102c4400e70f50003a003200440037001e007800bd
:102c5400100078008000e9001e0078000108780068
:102c64003e0037001e007800100078008000e80065
:102c74001e00780001087800380037001e00780034
:102c8400100090008000e9001e00780011009800f8
:102c9400320037001e007800100090008000e80029
:102ca4001e007800110098002c0037001e007800e8
:102cb400100078008000e9001e0078000108780008
:102cc4001e007800100090008000e9001e007800cb
:102cd40011009800210037001e00780010007800d1
:102ce4008000e8001e007800010878001e007800cb
:102cf400100090008000e8001e0078001100980089
:102d0400160037001e007800100078008000e900eb
:102d14001e007800010878001e0078001000900062
:102d24008000e8001e007800110098000b003700b6
:102d34001e007800100078008000e8001e00780073
:102d4400010878001e007800100090008000e9005f
:102d54001e00780011009800000000000080fa00b6
:102d6400000006000200fa00000f78001e00780040
:102d740020009000e40f500016003200e40f5000d1
:102d840005003c000000e0000a003200e10f5000a2
:102d94000c0032001f003700e60f5000150032000f
:102da400e60f50000f003500e70f50001500320009
:102db400180037001e007800110020002100980040
:102dc400140037001e0078008000eb0021009800fa
:102dd400100037001e0078006100200021009800d8
:102de4000c0037001e0078007100200021009800bc
:102df400080037001e0078004100200021009800e0
:102e0400040037001e0078005100200021009800c3
:102e1400000000000080fa00000006000400fa0030
:102e2400000f7800110798001e00780090009000b1
:102e34001e0090000080e800808f500004003a00db
:102e44001e007800110020002100980021003700a6
:102e54001e007800900090001e009000808f5000ab
:102e6400110035001e007800900090001e009000b4
:102e74000080e800808f50000b003d001e00900091
:102e84000000e00004003a001e0078005100200019
:102e9400210098000f0037001e0078007100200008
:102ea400210098000b0037009e009000b004200021
:102eb400808f500004003a001e007800710020004a
:102ec40021009800030037001e0078005100200004
:102ed400210098000080fa00000006000400fa00b7
:102ee400000f7800110798001e00780090009000f1
:102ef4001e0090000080e800808f500004003a001b
:102f04001e0078008000eb002100980021003700ab
:102f14001e007800900090001e009000808f5000ea
:102f2400110035001e007800900090001e009000f3
:102f34000080e800808f50000b003d001e009000d0
:102f44000000e00004003a001e0078006100200048
:102f5400210098000f0037001e0078004100200077
:102f6400210098000b0037009e009000b004200060
:102f7400808f500004003a001e00780041002000b9
:102f840021009800030037001e0078006100200033
:0c2f9400210098000080fa0000000600f8
:020000040000fa
:102fa0009612000020000000000000000808000049
:102fb0000200000002000000ffff0000ba12000043
:102fc00002000000000000000a08000002000000eb
:102fd000000000000c0800000200000000000000db
:102fe000bc12000002000000000000000e080000fb
:102ff00002000000000000001008000002000000b5
:103000000000000014080000820a00000200000016
:1030100001000100000100000100010000010000aa
:10302000010001000000000000000000000000009e
:103030000000000000000000000000000000000090
:103040000000000000000000000000000000000080
:103050000000000000000000000004000004000068
:103060000500040000040000000000000000000053
:103070000000000000000000000000000000000050
:103080000000000000000000000000000000000040
:103090000000000000000000000000000000000030
:1030a0000000000000000000000000000000000020
:1030b0008000800000800000800080000080000010
:1030c0008000800000800000800080000080000000
:1030d00080008000008000008000800000800000f0
:1030e0008000800000c00300c003c00003c00300d4
:1030f000c00380000080000080008000008000008d
:1031000080008000008000008000800000800000bf
:1031100080008000008000008000800000800000af
:10312000800080000080000080008000008000009f
:10313000800080000080000080008000008000008f
:10314000c003c00003c00300c003c0000380000030
:10315000800080000080000080008000008000006f
:10316000800080000080000080008000008000005f
:10317000800080000080000080008000008000004f
:10318000800080000080000080008000008000003f
:10319000800080000080000080008000008000002f
:1031a000800080000080000080008000008000001f
:1031b0008000800000800000c003c0000380000089
:1031c0008000800000c00300c00380000080000079
:1031d00080008000008000008000800000800000ef
:1031e00080008000008000008000800000800000df
:1031f00080008000008000008000800000800000cf
:1032000080008000008000008000800000800000be
:103210008000c00003c00300800080000080000028
:10322000c003c00003800000800080000080000018
:10323000800080000080000080008000008000008e
:10324000800080000080000080008000008000007e
:10325000800080000080000080008000008000006e
:10326000800080000080000080008000008000005e
:10327000800080000080000080008000008000004e
:1032800080008000008000008000800000c00300fb
:10329000c003800000800000c003c00003c0030022
:1032a000800080000080000080008000008000001e
:1032b000800080000080000080008000008000000e
:1032c00080008000008000008000800000800000fe
:1032d00080008000008000008000800000800000ee
:1032e0008000800000800000c003c0000380000058
:1032f0008000c00003c00300c00380000080000005
:1033000080008000008000008000800000800000bd
:1033100080008000008000008000800000800000ad
:10332000800080000080000080008000008000009d
:10333000800080000080000080008000008000008d
:10334000800080000080000080008000008000007d
:10335000800080000080000080008000008000006d
:103360008000c00003c003008000c00003c0030051
:10337000c003c000038000008000800000800000c7
:10338000800080000080000080008000008000003d
:10339000800080000080000080008000008000002d
:1033a000800080000080000080008000008000001d
:1033b00080008000008000008000800000c00300ca
:1033c000c003800000c00300c003c00003c00300ae
:1033d00080008000008000008000800000800000ed
:1033e00080008000008000008000800000800000dd
:1033f00080008000008000008000800000800000cd
:1034000080008000008000008000800000800000bc
:1034100080008000008000008000800000800000ac
:10342000800080000080000080008000008000009c
:103430008000800000800000c003c00003c00300c3
:10344000c003800000c00300c003800000800000b3
:10345000800080000080000080008000008000006c
:10346000800080000080000080008000008000005c
:10347000800080000080000080008000008000004c
:10348000800080000080000080008000008000003c
:103490008000c00003c00300c003c0000380000020
:1034a000c003c00003800000800080000080000096
:1034b000800080000080000080008000008000000c
:1034c00080008000008000008000800000800000fc
:1034d00080008000008000008000800000800000ec
:1034e00080008000008000008000800000800000dc
:1034f00080008000008000008000800000800000cc
:1035000080008000008000008000800000c0030078
:10351000c003c000038000008000c00003c003009f
:10352000800080000080000080008000008000009b
:10353000800080000080000080008000008000008b
:10354000800080000080000080008000008000007b
:10355000800080000080000080008000008000006b
:103560008000800000800000c003c00003c0030092
:103570008000800000c00300c003800000800000c5
:10358000800080000080000080008000008000003b
:10359000800080000080000080008000008000002b
:1035a000800080000080000080008000008000001b
:1035b000800080000080000080008000008000000b
:1035c00080008000008000008000800000800000fb
:1035d00080008000008000008000800000800000eb
:1035e0008000800000c00300c003c00003c00300cf
:1035f000c003800000800000800080000080000088
:1036000080008000008000008000800000800000ba
:1036100080008000008000008000800000800000aa
:10362000800080000080000080008000008000009a
:10363000800080000080000080008000008000008a
:10364000c003c00003c00300c003c000038000002b
:10365000800080000080000080008000008000006a
:10366000800080000080000080008000008000005a
:10367000800080000080000080008000008000004a
:10368000800080000080000080008000008000003a
:10369000800080000080000080008000008000002a
:1036a000800080000080000080008000008000001a
:1036b000800080000080000080008000008000000a
:1036c00080008000008000008000800000800000fa
:1036d00080008000008000008000800000800000ea
:1036e00080008000008000008000800000800000da
:1036f00080008000008000008000800000800000ca
:1037000080008000008000008000800000800000b9
:1037100080008000008000008000800000800000a9
:103720008000800000800000800080000080000099
:103730008000800000800000800080000080000089
:103740008000800000800000800080000080000079
:103750008000800000800000800080000080000069
:103760008000800000c00300800080000080000016
:103770008000800000800000800080000080000049
:103780008000800000800000800080000080000039
:103790008000800000800000800080000080000029
:1037a0008000800000800000800080000080000019
:1037b0008000800000800000800080000080000009
:1037c00080008000008000008000800000800000f9
:1037d00080008000008000008000800000800000e9
:1037e00080008000008000008000800000800000d9
:1037f00080008000008000008000800000800000c9
:1038000080008000008000008000800000800000b8
:1038100080008000008000008000800000800000a8
:103820008000800000800000800080000080000098
:103830008000800000800000800080000080000088
:103840008000800000800000800080000080000078
:103850008000800000800000800080000080000068
:103860008000800000800000800080000080000058
:103870008000800000800000800080000080000048
:103880008000800000800000800080000080000038
:103890008000800000800000800080000080000028
:1038a0008000800000800000800080000080000018
:1038b0008000800000800000800080000080000008
:1038c00080008000008000008000800000800000f8
:1038d00080008000008000008000800000800000e8
:1038e00080008000008000008000800000800000d8
:1038f0008000800000800000c00380000080000085
:1039000080008000008000008000800000800000b7
:10391000c003800000800000800080000080000064
:103920008000800000800000800080000080000097
:103930008000800000800000800080000080000087
:103940008000800000800000800080000080000077
:103950008000800000800000800080000080000067
:103960008000800000800000800080000080000057
:103970008000800000800000800080000080000047
:103980008000800000800000800080000080000037
:103990008000800000800000800080000080000027
:1039a0008000800000800000800080000080000017
:1039b0008000800000800000800080000080000007
:1039c00080008000008000008000800000c00300b4
:1039d00080008000008000008000800000800000e7
:1039e00080008000008000008000800000800000d7
:1039f00080008000008000008000800000800000c7
:103a000080008000008000008000800000800000b6
:103a100080008000008000008000800000800000a6
:103a20008000800000800000800080000080000096
:103a30008000800000800000800080000080000086
:103a40008000800000800000800080000080000076
:103a50008000800000800000800080000080000066
:103a60008000800000800000800080000080000056
:103a70008000800000800000800080000080000046
:103a80008000800000800000800080000080000036
:103a90008000800000800000800080000080000026
:103aa0008000800000800000800080000080000016
:103ab00080008000008000008000c00003800000c3
:103ac00080008000008000008000800000800000f6
:103ad00080008000008000008000800000800000e6
:103ae00080008000008000008000800000800000d6
:103af00080008000008000008000800000800000c6
:103b000080008000008000008000800000800000b5
:103b100080008000008000008000800000800000a5
:103b20008000800000800000800080000080000095
:103b30008000800000800000800080000080000085
:103b40008000800000800000800080000080000075
:103b50008000800000800000800080000080000065
:103b60008000800000800000800080000080000055
:103b70008000800000800000800080000080000045
:103b80008000800000800000800080000080000035
:103b90008000800000800000800080000080000025
:103ba0008000800000800000800080000080000015
:103bb0008000800000800000800080000080000005
:103bc00080008000008000008000800000800000f5
:103bd00080008000008000008000800000800000e5
:103be00080008000008000008000800000800000d5
:103bf00080008000008000008000800000800000c5
:103c000080008000008000008000800000800000b4
:103c100080008000008000008000800000800000a4
:103c20008000800000800000800080000080000094
:103c30008000800000800000800080000080000084
:103c400080008000008000008000800000c0030031
:103c50008000800000800000800080000080000064
:103c60008000800000c00300800080000080000011
:103c70008000800000800000800080000080000044
:103c80008000800000800000800080000080000034
:103c90008000800000800000800080000080000024
:103ca0008000800000800000800080000080000014
:103cb0008000800000800000800080000080000004
:103cc0008000800000c003008000800000800000b1
:103cd00080008000008000008000800000800000e4
:103ce00080008000008000008000800000800000d4
:103cf00080008000008000008000800000800000c4
:103d000080008000008000008000800000800000b3
:103d100080008000008000008000800000800000a3
:103d20008000c00003800000800080000080000050
:103d3000010001000001000001000100000100007d
:103d40000100010000000000000000000000000071
:103d50000000000000000000000000000000000063
:103d60000000000000000000000000000000000053
:103d7000000000000000000000000400000400003b
:103d80000500040000040000000000000000000026
:103d90000000000000000000000000000000000023
:103da0000000000000000000000000000000000013
:103db0000000000000000000000000000000000003
:103dc00000000000000000000000000000000000f3
:103dd000628ae2008a628b00e28b62008ce28c00d5
:103de000628de2008d628e00e28e62008a00000029
:103df00000000000004c11004c11140008140800d1
:103e0000ec1100000000000000000000001c000099
:103e10001c00000000080000080000000200000074
:103e200028001e0000000000000000001208000032
:103e30000200000000000000b612000004000000b4
:083e400000000000000000007a
:020000040000fa
:103e48000200fa00000f78000000000000000000e7
:103e5800000000000000000000000000000000005a
:103e6800501688009016880000000000000000002e
:103e7800000000005016880090168800000000001e
:103e8800000000000000000050168800901688000e
:103e9800000000000000000000000000501688002c
:103ea80090168800000000000000000000000000dc
:103eb80050168800901688000000000000000000de
:103ec80000000000501688009016880000000000ce
:103ed80000000000000000005016880090168800be
:103ee80000000000000000000000000050168800dc
:103ef800901688000000000000000000000000008c
:103f0800501688009016880000000000000000008d
:103f1800000000005016880090168800000000007d
:103f2800000000000000000050168800901688006d
:103f3800000000000000000000000000501688008b
:103f4800901688000000000000000000000000003b
:103f5800501688009016880000000000000000003d
:103f6800000000005016880090168800000000002d
:103f7800000000000000000050168800901688001d
:103f8800000000000000000000000000501688003b
:103f980090168800000000000000000000000000eb
:103fa80050168800901688000000000000000000ed
:103fb80000000000501688009016880000000000dd
:103fc80000000000000000005016880090168800cd
:103fd80000000000000000000000000050168800eb
:103fe800901688000000000000000000000000009b
:103ff800501688009016880000000000000000009d
:10400800000000005016880090168800000000008c
:10401800000000000000000050168800901688007c
:10402800000000000000000000000000501688009a
:10403800901688000000000000000000000000004a
:10404800501688009016880000000000000000004c
:10405800000000005016880090168800000000003c
:10406800000000000000000050168800901688002c
:10407800000000000000000000000000501688004a
:1040880090168800000000000000000000000000fa
:1040980050168800901688000000000000000000fc
:1040a80000000000501688009016880000000000ec
:1040b80000000000000000005016880090168800dc
:1040c80000000000000000000000000050168800fa
:1040d80090168800000000000000000000000000aa
:1040e80050168800901688000000000000000000ac
:1040f800000000005016880090168800000000009c
:10410800000000000000000050168800901688008b
:1041180000000000000000000000000050168800a9
:104128009016880000000000000000000000000059
:10413800501688009016880000000000000000005b
:10414800000000005016880090168800000000004b
:10415800000000000000000050168800901688003b
:104168000000000000000000000000005016880059
:104178009016880000000000000000000000000009
:10418800501688009016880000000000000000000b
:1041980000000000501688009016880000000000fb
:1041a80000000000000000005016880090168800eb
:1041b8000000000000000000000000005016880009
:1041c80090168800000000000000000000000000b9
:1041d80050168800901688000000000000000000bb
:1041e80000000000501688009016880000000000ab
:1041f800000000000000000050168800901688009b
:1042080000000000000000000000000050168800b8
:104218009016880000000000000000000000000068
:10422800501688009016880000000000000000006a
:10423800000000005016880090168800000000005a
:10424800000000000000000050168800901688004a
:104258000000000000000000000000005016880068
:104268009016880000000000000000000000000018
:10427800501688009016880000000000000000001a
:10428800000000005016880090168800000000000a
:1042980000000000000000005016880090168800fa
:1042a8000000000000000000000000005016880018
:1042b80090168800000000000000000000000000c8
:1042c80050168800901688000000000000000000ca
:1042d80000000000501688009016880000000000ba
:1042e80000000000000000005016880090168800aa
:1042f80000000000000000000000000050168800c8
:104308009016880000000000000000000000000077
:104318005016880090168800000000000000000079
:104328000000000050168800901688000000000069
:104338000000000000000000501688009016880059
:104348000000000000000000000000005016880077
:104358009016880000000000000000000000000027
:104368005016880090168800000000000000000029
:104378000000000050168800901688000000000019
:104388000000000000000000501688009016880009
:104398000000000000000000000000005016880027
:1043a80090168800000000000000000000000000d7
:1043b80050168800901688000000000000000000d9
:1043c80000000000501688009016880000000000c9
:1043d80000000000000000005016880090168800b9
:1043e80000000000000000000000000050168800d7
:1043f8009016880000000000000000000000000087
:104408005016880090168800000000000000000088
:104418000000000050168800901688000000000078
:104428000000000000000000501688009016880068
:104438000000000000000000000000005016880086
:104448009016880000000000000000000000000036
:104458005016880090168800000000000000000038
:104468000000000050168800901688000000000028
:104478000000000000000000501688009016880018
:104488000000000000000000000000005016880036
:1044980090168800000000000000000000000000e6
:1044a800d222ef00cd22a9000080fa000000060009
:1044b8000200fa00000f780090047800591688006e
:1044c800991688000080e800900478005916880042
:1044d800991688000080e800900478005916880032
:1044e800991688000080e800900478005916880022
:1044f800991688000080e800900478005916880012
:10450800991688000080e800900478005916880001
:10451800991688000080e8009004780059168800f1
:10452800991688000080e8009004780059168800e1
:10453800991688000080e8009004780059168800d1
:10454800991688000080e8009004780059168800c1
:10455800991688000080e8009004780059168800b1
:10456800991688000080e8009004780059168800a1
:10457800991688000080e800900478005916880091
:10458800991688000080e800900478005916880081
:10459800991688000080e800900478005916880071
:1045a800991688000080e800900478005916880061
:1045b800991688000080e800900478005916880051
:1045c800991688000080e800900478005916880041
:1045d800991688000080e800900478005916880031
:1045e800991688000080e800900478005916880021
:1045f800991688000080e800900478005916880011
:10460800991688000080e800900478005916880000
:10461800991688000080e8009004780059168800f0
:10462800991688000080e8009004780059168800e0
:10463800991688000080e8009004780059168800d0
:10464800991688000080e8009004780059168800c0
:10465800991688000080e8009004780059168800b0
:10466800991688000080e8009004780059168800a0
:10467800991688000080e800900478005916880090
:10468800991688000080e800900478005916880080
:10469800991688000080e800900478005916880070
:1046a800991688000080e800900478005916880060
:1046b800991688000080e800900478005916880050
:1046c800991688000080e800900478005916880040
:1046d800991688000080e800900478005916880030
:1046e800991688000080e800900478005916880020
:1046f800991688000080e800900478005916880010
:10470800991688000080e8009004780059168800ff
:10471800991688000080e8009004780059168800ef
:10472800991688000080e8009004780059168800df
:10473800991688000080e8009004780059168800cf
:10474800991688000080e8009004780059168800bf
:10475800991688000080e8009004780059168800af
:10476800991688000080e80090047800591688009f
:10477800991688000080e80090047800591688008f
:10478800991688000080e80090047800591688007f
:10479800991688000080e80090047800591688006f
:1047a800991688000080e80090047800591688005f
:1047b800991688000080e80090047800591688004f
:1047c800991688000080e80090047800591688003f
:1047d800991688000080e80090047800591688002f
:1047e800991688000080e80090047800591688001f
:1047f800991688000080e80090047800591688000f
:10480800991688000080e8009004780059168800fe
:10481800991688000080e8009004780059168800ee
:10482800991688000080e8009004780059168800de
:10483800991688000080e8009004780059168800ce
:10484800991688000080e8009004780059168800be
:10485800991688000080e8009004780059168800ae
:10486800991688000080e80090047800591688009e
:10487800991688000080e80090047800591688008e
:10488800991688000080e80090047800591688007e
:10489800991688000080e80090047800591688006e
:1048a800991688000080e80090047800591688005e
:1048b800991688000080e80090047800591688004e
:1048c800991688000080e80090047800591688003e
:1048d800991688000080e80090047800591688002e
:1048e800991688000080e80090047800591688001e
:1048f800991688000080e80090047800591688000e
:10490800991688000080e8009004780059168800fd
:10491800991688000080e8009004780059168800ed
:10492800991688000080e8009004780059168800dd
:10493800991688000080e8009004780059168800cd
:10494800991688000080e8009004780059168800bd
:10495800991688000080e8009004780059168800ad
:10496800991688000080e80090047800591688009d
:10497800991688000080e80090047800591688008d
:10498800991688000080e80090047800591688007d
:10499800991688000080e80090047800591688006d
:1049a800991688000080e80090047800591688005d
:1049b800991688000080e800cd22a90000000000b8
:1049c800d222ef000080fa00000006000000fa0082
:1049d8000621ef00d01f2000600888000000280092
:1049e80080088800504080000000e00002003a0083
:1049f800205422002400070084e0a90094e0a800c5
:104a0800a02b21008040eb00014878000080fa00cc
:104a1800000006000200fa00000f78009e007800ef
:104a280061088800a02b21008040eb000148780035
:104a38000080fa00000006000000fa00600880000c
:104a48000080fa00000006000200fa00000f78005b
:104a58009e00780031088800a02b21008040eb00e0
:104a6800014878000080fa00000006000000fa0003
:104a7800300880000080fa00000006000000fa00fc
:104a88000080fa00000006000200fa00000f78001b
:104a980094e0a9009e0078005140880094e0a800a6
:104aa8000080fa00000006000000fa00a02b210098
:104ab8008040eb000148780094e0a80011e1a800cc
:104ac8000080fa00000006000000fa0011e1a900c9
:104ad80094e0a9000080fa00000006000200fa0035
:104ae800a02b2100104f78001e4078000004e00041
:104af80003003200a02b21008040eb000148780021
:104b08001e4078000080fa00000006000000fa004d
:104b1800b02b2100104078000080fb000080fa00d4
:104b2800000006000000fa00b02b21008040eb00d6
:104b3800014878000080fa00000006000000fa0032
:104b48000021ef00702728001008880000012800c5
:104b580020088800704080000000e00002003a0051
:104b6800a05f2200240007008460a9009460a800c8
:104b7800c02b21008040eb00014878000080fa003b
:104b8800000006000200fa00000f78009e0078007e
:104b980011088800c02b21008040eb0001487800f4
:104ba8000080fa00000006000000fa0010088000eb
:104bb8000080fa00000006000200fa00000f7800ea
:104bc8009e00780001088800c02b21008040eb007f
:104bd800014878000080fa00000006000000fa0092
:104be800000880000080fa00000006000000fa00bb
:104bf8000080fa00000006000200fa00000f7800aa
:104c08009460a9009e007800714088009460a80014
:104c18000080fa00000006000000fa00c02b210006
:104c28008040eb00014878009460a80005e1a800e6
:104c38000080fa00000006000000fa0005e1a90063
:104c48009460a9000080fa00000006000200fa0043
:104c5800c02b2100104f78001e4078000004e000af
:104c680003003200c02b21008040eb00014878008f
:104c78001e4078000080fa00000006000000fa00dc
:104c8800d02b2100104078000080fb000080fa0043
:104c9800000006000000fa00d02b21008040eb0045
:104ca800014878000080fa00000006000000fa00c1
:104cb800001c2000000c88000080eb00100c88000d
:104cc80060002000200c8800200c80000040780044
:104cd800674060000080fb00604088000080fa00a8
:104ce800000006000000fa000080fa00000006003c
:104cf8000000fa0020048000640060000000e0006a
:104d080002003200f7ff07008440a9000080fa0083
:104d1800000006000000fa006040800000407800b3
:104d2800674060000080fb0067006000220c800084
:104d380081ff2f008100610001007000200c8800b5
:104d48000080fa00000006000000fa00210c800034
:104d580080ff2f0000806000200c88000080fa008f
:104d6800000006000200fa00000f78009e0078009c
:104d7800010c88000080fa00000006000200fa001a
:104d8800000f78009e007800110c88000080fa005f
:104d9800000006000000fa00200480004200de0047
:104da800614060000080fb0000f0a7000000ea00fe
:104db8000000ea004f00de00004078000080fa00a2
:104dc800000006000400fa00100798001e0090007a
:104dd8000000e0000a003a00200c80004400de00d9
:104de800614060000080fb0000f0a7000000ea00be
:104df8000000ea004f00de00004f78000100370095
:104e0800000000001e4078000080fa000000060044
:104e18000000fa00400e2800001988002223ef0045
:104e280000f02100201988002823ef003023ef002c
:104e3800101980004200de006f40600010e8b700e3
:104e48000080fa00000006000000fa002023a800f5
:104e58000080fa00000006000000fa002023a900e4
:104e68000080fa00000006000600fa0020079800fb
:104e780000302000100798000000eb00000f7800b9
:104e88000b0037001e00780000004000ae009000c4
:104e9800008040009e009000910078000108780092
:104ea8001e0090000080e800100798001e0fe80020
:104eb80010c8bf000080fb009e0f5000f1ff3d00ae
:104ec8001e0078000080fa00000006000000fa00ca
:104ed800001880000080fa00000006000000fa00b8
:104ee8000019800000407800614060000080fb00ed
:104ef80000f0a7000000ea000000ea004f00de0012
:104f0800004078000080fa00000006000200fa0065
:104f1800000f78009e007800411988000080fa0090
:104f2800000006000200fa00000f78001e0078005a
:104f3800f6ff0700c4ff0700c7ff070000000000d6
:104f4800e6ff07000004a2000004e000fcff3a00ae
:104f5800deff07000080fa00000006000000fa00eb
:104f680085a0a9000080fa00000006000000fa00f1
:104f780000102000201688004010200060168800cd
:104f8800d422ef007079200000168800f0c72f00a7
:104f980040168800b0282000801688006820ef009e
:104fa8006a20ef00c622ef00ce22ef00d622ef00e3
:104fb800c010200060198800113a8000f00b200012
:104fc8000081600060042000710520002374200027
:104fd800804978008149780082497800413680000c
:104fe80000fe2f00008060002001b30040368800da
:104ff800103a8000000178000260a00060042000e0
:1050080071052000237420008049780081497800c8
:10501800824978000080fa00000006000400fa00c7
:105028000000eb00100798000000eb00000f78006c
:105038001e0078000080fa00000006000600fa0052
:105048006000b800008fbe000000eb002007980049
:10505800f2ff0700200798002e0090008000eb0068
:10506800d6ed07000200200003482400d5ed070014
:105078003233230033052400b1ee0700008fbe0051
:105088001e00be000080fa00000006000000fa00c2
:1050980000102300203a88004827ef007027ef000f
:1050a8007227ef007427ef003200200080072000ed
:1050b800a1092000337420008049780081497800d4
:1050c800824978000001eb0060042000710520008f
:1050d800237420008049780081497800824978004b
:1050e8000080fa00000006000200fa00000f7800b5
:1050f8009e00780041408800ffff37000000fa005a
:105108006029210080077800e02a2100000188003a
:105118000080fa00000006000000fa003105800057
:10512800000027000100700030058800210580007c
:105138000000270001007000200588000080fa00a8
:10514800000006000000fa0088ff0700cfff0700f4
:10515800f1ff07002eff0700d4fe07001bfe070023
:1051680076fe07000080fa00000006000000fa0042
:105178000000eb0085ed0700b9f00700f1ff07001c
:1051880020f6200040fe0700a00321009afe070039
:04519800ffff3700de
:020000040000fa
:020000040001f9
:0457f8009dfb000015
:020000040000fa
:020000040001f9
:0457fc007f3f0000eb
:00000001FF
